:040000008A11F12F41
:10000A003F3406345B344F3466346D347D34073400
:10001A007F346F3400307005F80000307105F90044
:10002A0080307205FA007F307305FB007B087A0482
:10003A0079047804031D222823282B280030F30092
:10004A000030F2000030F1000030F000003074059A
:10005A00F80000307505F90080307605FA007F3027
:10006A007705FB007B087A0479047804031D3E288F
:10007A003F2847280030F7000030F6000030F5002E
:10008A000030F400F31F4A284B286F280030F8008C
:10009A000030F9000030FA008030FB007008F802E6
:1000AA007108031C710F5A285B28F9027208031C95
:1000BA00720F60286128FA027308031C730F6628FE
:1000CA006728FB027B08F3007A08F2007908F1003E
:1000DA007808F000F71F7228732897280030F80074
:1000EA000030F9000030FA008030FB007408F80292
:1000FA007508031C750F82288328F9027608031CE9
:10010A00760F88288928FA027708031C770F8E2829
:10011A008F28FB027B08F7007A08F6007908F500B9
:10012A007808F4008030F3068030F7067708730207
:10013A00031DA92876087202031DA92875087102F1
:10014A00031DA928740870020318AC28AD28AF282B
:10015A000310B02803140800831203136308F30082
:10016A006208F2006108F1006008F0000030F70050
:10017A000030F6000030F5000030F4008A110F203C
:10018A008A11031CC928CA28702A83120313630818
:10019A00F3006208F2006108F1006008F0004230E2
:1001AA00F700C830F6000030F5000030F4008A117C
:1001BA000F208A11031CE228E328E428702A8312FC
:1001CA0003136308D9006208D8006108D7006008E1
:1001DA00D6008A15A2258A1183120313560883169C
:1001EA000313AA00831203136308BB006208BA0050
:1001FA006108B9006008B800831603132A0883123D
:10020A000313E400E501E601E7016708F300660865
:10021A00F2006508F1006408F00001308A154C27E5
:10022A008A11730883120313B7007208B6007108A3
:10023A00B5007008B4008A1569248A118312031361
:10024A003708C3003608C2003508C1003408C000A8
:10025A004230BF00C830BE000030BD000030BC00D4
:10026A008A11C1248A11831203133F0883160313C8
:10027A00A300831203133E0883160313A2008312FA
:10028A0003133D0883160313A100831203133C08CA
:10029A0083160313A000230883120313A7008316EF
:1002AA000313220883120313A600831603132108DB
:1002BA0083120313A5008316031320088312031362
:1002CA00A4003F30A3000030A2000030A10000309B
:1002DA00A0008A1171228A11831203132308D900FC
:1002EA002208D8002108D7002008D6008A15A2259E
:1002FA008A1183120313560883160313A6000A30C1
:10030A00F8000030F9000A30F0000030F1002A0845
:10031A0083120313E400E5016408F2006508F300A0
:10032A008A153F258A117108FB007008FA008A15A0
:10033A00E8248A11780883160313A4000A30F80007
:10034A000030F9002A0883120313E400E501640867
:10035A00FA006508FB008A15E8248A1178088316D2
:10036A000313A7000A30F0000030F10026088312B8
:10037A000313E400E5016408F2006508F3008A1536
:10038A003F258A11700883160313A8000A30F80063
:10039A000030F900260883120313E400E50164081B
:1003AA00FA006508FB008A15E8248A117808831682
:1003BA000313A500A9010A302A02031CE529E6292C
:1003CA002F2AF001F00A24088A15B2248A110B3068
:1003DA0083120313E5006130E400E40BF229E50B14
:1003EA00F229F7290230F0008316031327088A1529
:1003FA00B2248A11083083120313E500C930E400DD
:10040A00E40B052AE50B052A831203138617063027
:10041A0083120313E5002F30E400E40B122AE50BE4
:10042A00122A172A7F308312031386050330F0003D
:10043A008316031328088A15B2248A110B308312F3
:10044A000313E5006130E400E40B292AE50B292AAD
:10045A002E2A632AF001F00A27088A15B2248A1183
:10046A008312031386170B3083120313E5006130DE
:10047A00E400E40B3E2AE50B3E2A432A7F3083122E
:10048A00031386050230F0008316031328088A1521
:10049A00B2248A110B3083120313E5006130E400A1
:1004AA00E40B552AE50B552A5A2A0330F000831625
:1004BA00031325088A15B2248A11232A01308316C8
:1004CA000313A90732302902031C6C2A6D2AE0297A
:1004DA008A1549248A110800831203132308B000DD
:1004EA008030B0052308A8002807B200A21F7E2A80
:1004FA007F2A802A321432080319842A852A952AE7
:10050A00320A031D892A8A2A922A0030A30000305F
:10051A00A2000030A1000030A000A217A3019D2A6A
:10052A000030A3000030A2000030A1000030A0007B
:10053A002708B1008030B105310830060319A62A10
:10054A00A72AA82A30172708A8002807B100A61F3B
:10055A00AF2AB02AB12A311431080319B52AB62AAA
:10056A00C62A310A031DBA2ABB2AC32A0030A700A9
:10057A000030A6000030A5000030A400A617A7018D
:10058A00CE2A0030A7000030A6000030A5000030B7
:10059A00A400320831020318D32AD42AF82A301FB9
:1005AA00D72AD82ADA2A8030B0063208B3003108AE
:1005BA00B2003308B1002008B3002408A0003308B1
:1005CA00A4002108B3002508A1003308A5002208C9
:1005DA00B3002608A2003308A6002308B3002708A0
:1005EA00A3003308A700B3013108A800A90129080C
:1005FA00AB0032082802AA00031CAB032B08803A7E
:10060A00FF0080307F02031D0C2B1A302A02031CC4
:10061A000F2B102B452B83120313230822042104CA
:10062A002004031D192B1B2B01301C2B0030B30097
:10063A000030A3000030A2000030A1000030A0006A
:10064A003108B2004D2B331C2B2B2C2B332B3308A8
:10065A00A8000310280C0138B300352B0310B30C83
:10066A00201C382B392B3A2BB3170130A800230D45
:10067A00A30CA20CA10CA00CA80B3C2B0130B207B6
:10068A008312031331083202031C4C2B4D2B282BE7
:10069A00301B502B512B982B3208031D552B562BF0
:1006AA005F2B0030A3000030A2000030A100003010
:1006BA00A000C02C2408A007250803110318013E36
:1006CA000319682BA107260803110318013E031911
:1006DA006F2BA207270803110318013E0319762B73
:1006EA00A307231C792B7A2B4C2C331C7D2B7E2BB6
:1006FA00852B3308A8000310280C0138B300872B78
:10070A000310B30C201C8A2B8B2B8C2BB3170130B4
:10071A00A800230DA30CA20CA10CA00CA80B8E2BD5
:10072A000130B2074C2C2308803AFF002708803A90
:10073A007F02031DAA2B26082202031DAA2B2508C5
:10074A002102031DAA2B240820020318AD2BAE2B6D
:10075A00052CFF30A800FF30A900FF30AA00FF30A7
:10076A00AB002408AC002508AD002608AE00270817
:10077A00AF002008AC022108031C210FC52BC62B91
:10078A00AD022208031C220FCB2BCC2BAE0223086E
:10079A00031C230FD12BD22BAF022C08A8072D083C
:1007AA0003182D0FD92BDA2BA9072E0803182E0FA1
:1007BA00DF2BE02BAA072F0803182F0AAB072B08F9
:1007CA00A3002A08A2002908A1002808A000803056
:1007DA00B0063303FF3AB3003308031DF52BF62B9B
:1007EA00132C0130A007003003180130A107003094
:1007FA0003180130A207003003180130A307132C95
:10080A002408A0022508031C250FA1022608031CA0
:10081A00260FA2022708031C270FA302230822047B
:10082A0021042004031D1A2C1B2C482C3308031DF9
:10083A001F2C202C482C0030A3000030A2000030CE
:10084A00A1000030A000C02C0130A8000310A00DA8
:10085A00A10DA20DA30DA80B2B2CB31F352C362CE2
:10086A00372C2014331C3A2C3B2C3F2C0314330D09
:10087A00B300412C0310B30D32080319452C462C42
:10088A00482C0130B202A21F4B2C4C2C292CB1014E
:10089A00B31F502C512C5F2C33087F390319562C67
:1008AA00572C5A2C0130B1005F2C201C5D2C5E2C79
:1008BA005F2C572C31080319632C642C962C0130B9
:1008CA00A007003003180130A107003003180130D7
:1008DA00A207003003180130A307231C752C762CBD
:1008EA00962C2008A8002108A9002208AA0023089B
:1008FA00AB000130AC002B0DAB0CAA0CA90CA80C58
:10090A00AC0B802C2B08A3002A08A2002908A100FE
:10091A002808A000320A0319932C942C962C013033
:10092A00B207320A03199A2C9B2CA02C3208031DF9
:10093A009F2CA02CAE2C0030A3000030A200003067
:10094A00A1000030A0003208031DAC2CAD2CAE2C47
:10095A00B001321CB12CB22CB42CA217B62C7F30A9
:10096A00A2053208A8000310280CA300B01FBE2C51
:10097A00BF2CC02CA3170800831203133F08C90019
:10098A008030C9053F08C4004407CF00BE1FCE2CE3
:10099A00CF2CD02C4F144F080319D42CD52CE42C6F
:1009AA004F0A031DD92CDA2CE22C0030BF0000308C
:1009BA00BE000030BD000030BC00BE17EC2C003079
:1009CA00BF000030BE000030BD000030BC0043084C
:1009DA008039C9064308C4004407CE00C21FF62C5A
:1009EA00F72CF82C4E144E080319FC2CFD2C0C2D58
:1009FA004E0A031D012D022D0A2D0030C3000030BE
:100A0A00C2000030C1000030C000C217142D0030EF
:100A1A00C3000030C2000030C1000030C0004E08E0
:100A2A000319182D192D1E2D4F08031D1D2D1E2DBE
:100A3A00272D0030BF000030BE000030BD0000305E
:100A4A00BC00F02F3C08F00042088A158B248A115A
:100A5A00710883120313D5007008D4005408C40027
:100A6A00C501C601C7014708CD004608CC004508A4
:100A7A00CB004408CA005508C400C501C601C70115
:100A8A004708D3004608D2004508D1004408D000E0
:100A9A003D08F00041088A158B248A1171088312D7
:100AAA000313D5007008D4005408C400C501C60158
:100ABA00C7014408CA07450803110318013E031970
:100ACA00672DCB07460803110318013E03196E2D43
:100ADA00CC07470803110318013E0319752DCD07EA
:100AEA005508C400C501C601C7014408D007450816
:100AFA0003110318013E0319832DD1074608031178
:100B0A000318013E03198A2DD20747080311031857
:100B1A00013E0319912DD3073E08F00040088A15BB
:100B2A008B248A11710883120313D5007008D4002C
:100B3A005408C400C501C601C7014408CA074508CC
:100B4A0003110318013E0319AB2DCB074608031105
:100B5A000318013E0319B22DCC07470803110318E5
:100B6A00013E0319B92DCD075508C400C501C601B8
:100B7A00C7014408D007450803110318013E0319A9
:100B8A00C72DD107460803110318013E0319CE2DBC
:100B9A00D207470803110318013E0319D52DD307BD
:100BAA000830C4000310CA0DCB0DCC0DCD0DC40BFB
:100BBA00D72D3D08F00040088A158B248A11710848
:100BCA0083120313D5007008D4005408C4005508D2
:100BDA00C500C601C7014408CA074508031103181E
:100BEA00013E0319F92DCB07460803110318013EEC
:100BFA000319002ECC07470803110318013E0319F5
:100C0A00072ECD073C08F00041088A158B248A116B
:100C1A00710883120313D5007008D4005408C40065
:100C2A005508C500C601C7014408CA07450803118B
:100C3A000318013E0319222ECB0746080311031895
:100C4A00013E0319292ECC07470803110318013E58
:100C5A000319302ECD070830C4000310CA0DCB0D7E
:100C6A00CC0DCD0DC40B322E3C08F00040088A157D
:100C7A008B248A11710883120313D5007008D400DB
:100C8A005408C4005508C500C601C7014408CA076C
:100C9A00450803110318013E0319542ECB074608D1
:100CAA0003110318013E03195B2ECC0747080311F1
:100CBA000318013E0319622ECD073D08F0004208D1
:100CCA008A158B248A11710883120313D5007008C0
:100CDA00D4005408C4005508C500C601C701440819
:100CEA00D007450803110318013E03197D2ED107C9
:100CFA00460803110318013E0319842ED207470838
:100D0A0003110318013E03198B2ED3073E08F00086
:100D1A0041088A158B248A11710883120313D5009E
:100D2A007008D4005408C4005508C500C601C7019C
:100D3A004408D007450803110318013E0319A62EDB
:100D4A00D107460803110318013E0319AD2ED20735
:100D5A00470803110318013E0319B42ED3073E08AE
:100D6A00F00042088A158B248A1171088312031332
:100D7A00D5007008D4005408C4005508C500C6013F
:100D8A00C70108300310C40DC50DC60DC70DFF3EBF
:100D9A00031DC72E4408D007450803110318013E56
:100DAA000319D82ED107460803110318013E031967
:100DBA00DF2ED207470803110318013E0319E62E56
:100DCA00D3074A08C4004B08C5004C08C6004D08A2
:100DDA00C70018300310C70CC60CC50CC40CFF3E64
:100DEA00031DEF2E4408D007450803110318013EDE
:100DFA000319002FD107460803110318013E0319EE
:100E0A00072FD207470803110318013E03190E2FB3
:100E1A00D3070830C4000310CA0DCB0DCC0DCD0D7D
:100E2A00C40B102F4F084E07C400C501C50D440856
:100E3A00823ED40045080318013EFF3ED500422FEA
:100E4A000130C4000310D00DD10DD20DD30DC40B47
:100E5A00272FCD1F312F322F332F50140130C400CA
:100E6A000310CA0DCB0DCC0DCD0DC40B352FFF30A1
:100E7A00D4070318D50AFF30D507D21F452F462FAE
:100E8A00252FCE01CD1F4A2F4B2F672FFF304A0542
:100E9A00C400FF304B05C500FF304C05C6007F304B
:100EAA004D05C700470846044504440403195E2F4C
:100EBA005F2F622F0130CE00672F501C652F662FDF
:100ECA00672F5F2F4E0803196B2F6C2F9D2F013050
:100EDA00D007003003180130D10700300318013061
:100EEA00D207003003180130D307531C7D2F7E2F01
:100EFA009D2F5008C4005108C5005208C600530867
:100F0A00C7000130C800470DC70CC60CC50CC40C7D
:100F1A00C80B882F4708D3004608D2004508D100DD
:100F2A004408D0000130D4070318D50A0030D50789
:100F3A005508803AFF0080307F02031DA62FFF303C
:100F4A005402031CA92FAA2FB52F7F308312031333
:100F5A00D3008030D2000030D1000030D000E62F1C
:100F6A00831203135508803AFF0080307F02031D65
:100F7A00C02F013054020318C32FC42FD02F0030C2
:100F8A0083120313D3000030D2000030D1000030A6
:100F9A00D000C901E62F831203135408CF00FF3093
:100FAA00D005FF30D1057F30D2050030D3054F1C64
:100FBA00DF2FE02FE12FD2174F08C4000310440C93
:100FCA00D3004908D3045308BF005208BE00510891
:100FDA00BD005008BC0008008313B530FD00003086
:100FEA00FE000530FF00AB3084008A155C248A11AC
:060FFA0083018A15182E88
:10189200831203138601F8308505080083160313AB
:1018A2008601F83085058A1549248A1508007E08C4
:1018B2008A007F0882008A1558248A158000840ACB
:1018C20004087D0603190034FF0A0319FE0A5C2C82
:1018D200803083120313B7063B08A3003A08A20024
:1018E2003908A1003808A0003708A7003608A6006A
:1018F2003508A5003408A4008A1171228A158312C2
:1019020003132308B7002208B6002108B5002008F7
:10191200B4000800F800F401F5017008F200F301C8
:101922007208F6007308F700781C982C992C9F2CEB
:101932007608F4070318F50A7708F5070130031053
:10194200F60DF70DFF3E031DA02C0310F80C7808CE
:10195200031DAC2CAD2C952C7508F1007408F00019
:101962000800F1000A3071020318B82CB92CE72CD8
:1019720070080319BD2CBE2CE72C04307002031C26
:10198200C32CC42CC52CE72C80308312031386058C
:10199200D62CF93085050514E12CFA30850585141D
:1019A200E12CFC3085050515E12C7008013A03197C
:1019B200CA2C033A0319CE2C013A0319D22CE12C7A
:1019C2007108AB3E84008313000886040800FD0101
:1019D200FB1FEC2CED2CF42CFA09FB09FA0A031973
:1019E200FB0A0130FD00F91FF72CF82CFD2CF80939
:1019F200F909F80A0319F90A780879040319022D7A
:101A0200032D302D0130FC000F2D01300310F80D95
:101A1200F90DFF3E031D072D0130FC07F91F122DA2
:101A2200132D062D79087B02031D192D78087A02E1
:101A3200031C1C2D1D2D232D7808FA027908031C86
:101A4200FB03FB0201300310F90CF80CFF3E031DEF
:101A5200242D0130FC02031D2F2D302D132D7D0866
:101A62000319342D352D3A2DFA09FB09FA0A031907
:101A7200FB0A7B08F9007A08F8000800F501F11F5B
:101A8200432D442D4B2DF009F109F00A0319F10AF7
:101A92000130F500F31F4E2D4F2D562DF209F3099B
:101AA200F20A0319F30A0130F506F601F70170088C
:101AB200710403195D2D5E2D932D0130F4006A2D02
:101AC20001300310F00DF10DFF3E031D622D0130B8
:101AD200F407F11F6D2D6E2D612D01300310F60DEF
:101AE200F70DFF3E031D6F2D71087302031D7B2D41
:101AF20070087202031C7E2D7F2D862D7008F20263
:101B02007108031CF303F302761401300310F10C85
:101B1200F00CFF3E031D872D0130F402031D922DB0
:101B2200932D6E2D75080319972D982D9D2DF6096D
:101B3200F709F60A0319F70A7708F1007608F000A8
:101B42000800031083120313580D590DDF005F08BC
:101B5200031DAC2DAD2DB62D0030D9000030D800BC
:101B62000030D7000030D600172E5608DA0057088A
:101B7200DB005808DC005908DD001F300310DD0CC3
:101B8200DC0CDB0CDA0CFF3E031DBF2D5A08DE0015
:101B9200D817FF30D605FF30D705FF30D805003003
:101BA200D9059630DF02DF1FD72DD82DF02D5F0823
:101BB200803A973E0318DE2DDF2DE02DAD2D01304A
:101BC2000310D90CD80CD70CD60CFF3E031DE12D07
:101BD2000130DF07031DEE2DEF2DE02D072E203003
:101BE2005F02031CF52DF62D022EAD2D0130DA0019
:101BF2000310D60DD70DD80DD90DDA0BF92D013002
:101C0200DF025F08031D062E072EF72D5E0803195B
:101C12000B2E0C2E172ED609D709D809D909D60AA8
:101C22000319D70A0319D80A0319D90A08008A1511
:101C32004F248A1583120313EB016B08E800E901B4
:101C42006808A0006908A1008A15AD268A15D0305F
:101C520083120313E900C930E800E80B2E2EE90BCA
:101C62002E2E013083120313EB0705306B02031C87
:101C72003B2E3C2E1E2E4130E3004330E200333037
:101C8200E1003330E0008A11B1208A151530831249
:101C92000313EA004B30E900BD30E800E80B4F2E99
:101CA200E90B4F2EEA0B4F2E562E3F3083120313B1
:101CB200E3009A30E200E130E1004830E0008A11AE
:101CC200B1208A15153083120313EA004B30E90064
:101CD200BD30E800E80B6B2EE90B6B2EEA0B6B2E86
:101CE200722E3E3083120313E3006130E20047306C
:101CF200E100AE30E0008A11B1208A15153083125E
:101D02000313EA004B30E900BD30E800E80B872EF0
:101D1200E90B872EEA0B872E8E2E42308312031395
:101D2200E3000B30E2003330E1003330E0008A118F
:101D3200B1208A15153083120313EA004B30E900F3
:101D4200BD30E800E80BA32EE90BA32EEA0BA32E6D
:101D5200AA2E1B2E8A1100288A1549248A1583125D
:101D62000313A11BB52EB62E4B2F2108803AFF007C
:101D720083307F02031DBF2EE8302002031CC22ED7
:101D8200C32EC42E4B2F0A30F8000030F900643005
:101D9200F0000030F100831203132108F300200841
:101DA200F2008A153F258A157108FB007008FA00B7
:101DB2008A15E8248A15780883120313A4000A30CE
:101DC200F8000030F9000A30F0000030F10021087C
:101DD200F3002008F2008A153F258A157108FB00DE
:101DE2007008FA008A15E8248A157808831203130A
:101DF200A5000A30F8000030F9002108FB00200895
:101E0200FA008A15E8248A15780883120313A600BB
:101E1200A701F001F00A24088A15B2248A150B30B2
:101E220083120313A3006130A200A20B162FA30B8F
:101E3200162F1B2F0230F0008312031325088A1578
:101E4200B2248A150B3083120313A3006130A2005F
:101E5200A20B292FA30B292F2E2F0330F000831260
:101E6200031326088A15B2248A150B308312031332
:101E7200A3006130A200A20B3C2FA30B3C2F412FE9
:101E8200013083120313A70732302702031C4A2FA3
:101E92004B2F0A2F0800F80078080319512F522FF0
:101EA200662FF31F552F562F662F7009FA007109FE
:101EB200FB007209FC007309FD00FA0A0319FB0A10
:101EC2000319FC0A0319FD0A6E2F7308FD0072083C
:101ED200FC007108FB007008FA00730872047104B8
:101EE2007004031D752F762F7F2F0030F300003012
:101EF200F2000030F1000030F000FF2F9630F900C0
:101F02008D2F0130F90701300310FD0CFC0CFB0C86
:101F1200FA0CFF3E031D852FFE307D05031D922F17
:101F2200932F822FAD2F0130F9070130FA070030CD
:101F320003180130FB07003003180130FC070030A2
:101F420003180130FD0701300310FD0CFC0CFB0CE3
:101F5200FA0CFF3E031DA52FFF307D05031DB22F96
:101F6200B32F942FBF2F0130F9020130F400031078
:101F7200FA0DFB0DFC0DFD0DF40BB82FFC1BC22F4F
:101F8200C32FC92F023079020318C82FC92FB42FCB
:101F92007918CC2FCD2FD52FFF30FA05FF30FB0556
:101FA2007F30FC05FF30FD050310F90C7908F400C1
:101FB200F501F601F70118300310F40DF50DF60DD9
:101FC200F70DFF3E031DDD2F7408FA047508FB04AC
:101FD2007608FC047708FD0478080319F12FF22F24
:101FE200F72FF31FF52FF62FF72FFD177D08F300BC
:0E1FF2007C08F2007B08F1007A08F00008007D
:04400E002A3FFF3F07
:00000001FF
