:040000008A11F12F41
:10000E00F800780803190C280D282128F31F102852
:10001E00112821287009FA007109FB007209FC00F1
:10002E007309FD00FA0A0319FB0A0319FC0A0319E6
:10003E00FD0A29287308FD007208FC007108FB00F8
:10004E007008FA007308720471047004031D3028DE
:10005E0031283A280030F3000030F2000030F10071
:10006E000030F000BA289630F90048280130F90720
:10007E0001300310FD0CFC0CFB0CFA0CFF3E031DB3
:10008E004028FE307D05031D4D284E283D2868284A
:10009E000130F9070130FA07003003180130FB0771
:1000AE00003003180130FC07003003180130FD0743
:1000BE0001300310FD0CFC0CFB0CFA0CFF3E031D73
:1000CE006028FF307D05031D6D286E284F287A2885
:1000DE000130F9020130F4000310FA0DFB0DFC0D96
:1000EE00FD0DF40B7328FC1B7D287E28842802301E
:1000FE0079020318832884286F287918872888287E
:10010E009028FF30FA05FF30FB057F30FC05FF30ED
:10011E00FD050310F90C7908F400F501F601F7015D
:10012E0018300310F40DF50DF60DF70DFF3E031DFF
:10013E0098287408FA047508FB047608FC047708FE
:10014E00FD0478080319AC28AD28B228F31FB02897
:10015E00B128B228FD177D08F3007C08F2007B0859
:10016E00F1007A08F0000800831203136308F3000D
:10017E006208F2006108F1006008F0000030F7003C
:10018E000030F6000030F5000030F4008A155E27CE
:10019E008A11031CD328D428702A831203136308F0
:1001AE00F3006208F2006108F1006008F0004230CE
:1001BE00F700C830F6000030F5000030F4008A1564
:1001CE005E278A11031CEC28ED28EE28702A831274
:1001DE0003136308D9006208D8006108D7006008CD
:1001EE00D6008A15B7258A11831203135608831673
:1001FE000313AA00831203136308BB006208BA003C
:10020E006108B9006008B800831603132A08831228
:10021E000313E400E501E601E7016708F300660851
:10022E00F2006508F1006408F00001308A11072021
:10023E008A11730883120313B7007208B60071088F
:10024E00B5007008B4008A157E248A118312031338
:10025E003708C3003608C2003508C1003408C00094
:10026E004230BF00C830BE000030BD000030BC00C0
:10027E008A11C1248A11831203133F0883160313B4
:10028E00A300831203133E0883160313A2008312E6
:10029E0003133D0883160313A100831203133C08B6
:1002AE0083160313A000230883120313A7008316DB
:1002BE000313220883120313A600831603132108C7
:1002CE0083120313A500831603132008831203134E
:1002DE00A4003F30A3000030A2000030A100003087
:1002EE00A0008A1171228A11831203132308D900E8
:1002FE002208D8002108D7002008D6008A15B72575
:10030E008A1183120313560883160313A6000A30AC
:10031E00F8000030F9000A30F0000030F1002A0831
:10032E0083120313E400E5016408F2006508F3008C
:10033E008A1554258A117108FB007008FA008A1577
:10034E00FD248A11780883160313A4000A30F800DE
:10035E000030F9002A0883120313E400E501640853
:10036E00FA006508FB008A15FD248A1178088316A9
:10037E000313A7000A30F0000030F10026088312A4
:10038E000313E400E5016408F2006508F3008A1522
:10039E0054258A11700883160313A8000A30F8003A
:1003AE000030F900260883120313E400E501640807
:1003BE00FA006508FB008A15FD248A117808831659
:1003CE000313A500A9010A302A02031CEF29F02904
:1003DE002F2AF001F00A24088A15C7248A11063044
:1003EE0083120313E5002F30E400E40BFC29E50B28
:1003FE00FC29012A0230F0008316031327088A1500
:10040E00C7248A118312031386170630831203132F
:10041E00E5002F30E400E40B122AE50B122A172A0E
:10042E007F308312031386050330F0008316031307
:10043E0028088A15C7248A11063083120313E50093
:10044E002F30E400E40B292AE50B292A2E2A632AF1
:10045E00F001F00A27088A15C7248A1183120313A4
:10046E008617063083120313E5002F30E400E40BE9
:10047E003E2AE50B3E2A432A7F308312031386055C
:10048E000230F0008316031328088A15C7248A1138
:10049E00063083120313E5002F30E400E40B552AD7
:1004AE00E50B552A5A2A0330F0008316031325084C
:1004BE008A15C7248A11232A013083160313A9072C
:1004CE0032302902031C6C2A6D2AEA298A1554241B
:1004DE008A110800831203132308B0008030B00580
:1004EE002308A8002807B200A21F7E2A7F2A802A8E
:1004FE00321432080319842A852A952A320A031DDA
:10050E00892A8A2A922A0030A3000030A2000030E5
:10051E00A1000030A000A217A3019D2A0030A30065
:10052E000030A2000030A1000030A0002708B1006A
:10053E008030B105310830060319A62AA72AA82A49
:10054E0030172708A8002807B100A61FAF2AB02A27
:10055E00B12A311431080319B52AB62AC62A310A2E
:10056E00031DBA2ABB2AC32A0030A7000030A600FA
:10057E000030A5000030A400A617A701CE2A003037
:10058E00A7000030A6000030A5000030A4003208FD
:10059E0031020318D32AD42AF82A301FD72AD82A90
:1005AE00DA2A8030B0063208B3003108B2003308C0
:1005BE00B1002008B3002408A0003308A4002108CD
:1005CE00B3002508A1003308A5002208B3002608B1
:1005DE00A2003308A6002308B3002708A30033089F
:1005EE00A700B3013108A800A9012908AB00320801
:1005FE002802AA00031CAB032B08803AFF008030B0
:10060E007F02031D0C2B1A302A02031C0F2B102BFA
:10061E00452B831203132308220421042004031DF7
:10062E00192B1B2B01301C2B0030B3000030A30004
:10063E000030A2000030A1000030A0003108B2004E
:10064E004D2B331C2B2B2C2B332B3308A8000310D4
:10065E00280C0138B300352B0310B30C201C382B9B
:10066E00392B3A2BB3170130A800230DA30CA20C83
:10067E00A10CA00CA80B3C2B0130B2078312031364
:10068E0031083202031C4C2B4D2B282B301B502BC8
:10069E00512B982B3208031D552B562B5F2B0030F8
:1006AE00A3000030A2000030A1000030A000C02C3A
:1006BE002408A007250803110318013E0319682B0F
:1006CE00A107260803110318013E03196F2BA20779
:1006DE00270803110318013E0319762BA307231CC9
:1006EE00792B7A2B4C2C331C7D2B7E2B852B3308B0
:1006FE00A8000310280C0138B300872B0310B30C8D
:10070E00201C8A2B8B2B8C2BB3170130A800230DAA
:10071E00A30CA20CA10CA00CA80B8E2B0130B207BF
:10072E004C2C2308803AFF002708803A7F02031DD5
:10073E00AA2B26082202031DAA2B25082102031D1F
:10074E00AA2B240820020318AD2BAE2B052CFF304C
:10075E00A800FF30A900FF30AA00FF30AB0024082C
:10076E00AC002508AD002608AE002708AF00200813
:10077E00AC022108031C210FC52BC62BAD0222088B
:10078E00031C220FCB2BCC2BAE022308031C230FF2
:10079E00D12BD22BAF022C08A8072D0803182D0F32
:1007AE00D92BDA2BA9072E0803182E0FDF2BE02BDF
:1007BE00AA072F0803182F0AAB072B08A3002A0835
:1007CE00A2002908A1002808A0008030B00633033B
:1007DE00FF3AB3003308031DF52BF62B132C013013
:1007EE00A007003003180130A107003003180130B4
:1007FE00A207003003180130A307132C2408A0020F
:10080E002508031C250FA1022608031C260FA20291
:10081E002708031C270FA302230822042104200407
:10082E00031D1A2C1B2C482C3308031D1F2C202CA7
:10083E00482C0030A3000030A2000030A100003090
:10084E00A000C02C0130A8000310A00DA10DA20D18
:10085E00A30DA80B2B2CB31F352C362C372C2014A4
:10086E00331C3A2C3B2C3F2C0314330DB300412C7C
:10087E000310B30D32080319452C462C482C0130B9
:10088E00B202A21F4B2C4C2C292CB101B31F502CA1
:10089E00512C5F2C33087F390319562C572C5A2CA8
:1008AE000130B1005F2C201C5D2C5E2C5F2C572C70
:1008BE0031080319632C642C962C0130A0070030EC
:1008CE0003180130A107003003180130A2070030D1
:1008DE0003180130A307231C752C762C962C2008A8
:1008EE00A8002108A9002208AA002308AB000130A5
:1008FE00AC002B0DAB0CAA0CA90CA80CAC0B802CCD
:10090E002B08A3002A08A2002908A1002808A0008D
:10091E00320A0319932C942C962C0130B207320A0A
:10092E0003199A2C9B2CA02C3208031D9F2CA02C53
:10093E00AE2C0030A3000030A2000030A100003029
:10094E00A0003208031DAC2CAD2CAE2CB001321C15
:10095E00B12CB22CB42CA217B62C7F30A2053208C3
:10096E00A8000310280CA300B01FBE2CBF2CC02C57
:10097E00A3170800831203133F08C9008030C9056E
:10098E003F08C4004407CF00BE1FCE2CCF2CD02C66
:10099E004F144F080319D42CD52CE42C4F0A031DE9
:1009AE00D92CDA2CE22C0030BF000030BE00003013
:1009BE00BD000030BC00BE17EC2C0030BF00003074
:1009CE00BE000030BD000030BC0043088039C906AF
:1009DE004308C4004407CE00C21FF62CF72CF82C97
:1009EE004E144E080319FC2CFD2C0C2D4E0A031D23
:1009FE00012D022D0A2D0030C3000030C200003040
:100A0E00C1000030C000C217142D0030C3000030EA
:100A1E00C2000030C1000030C0004E080319182D6E
:100A2E00192D1E2D4F08031D1D2D1E2D272D003097
:100A3E00BF000030BE000030BD000030BC00F02F03
:100A4E003C08F00042088A15A0248A11710883120E
:100A5E000313D5007008D4005408C400C501C601A4
:100A6E00C7014708CD004608CC004508CB00440816
:100A7E00CA005508C400C501C601C7014708D30006
:100A8E004608D2004508D1004408D0003D08F000C9
:100A9E0041088A15A0248A11710883120313D50008
:100AAE007008D4005408C400C501C601C70144082B
:100ABE00CA07450803110318013E0319672DCB071A
:100ACE00460803110318013E03196E2DCC07470883
:100ADE0003110318013E0319752DCD075508C400E7
:100AEE00C501C601C7014408D00745080311031804
:100AFE00013E0319832DD107460803110318013E49
:100B0E0003198A2DD207470803110318013E031952
:100B1E00912DD3073E08F00040088A15A0248A11B3
:100B2E00710883120313D5007008D4005408C40052
:100B3E00C501C601C7014408CA07450803110318B9
:100B4E00013E0319AB2DCB07460803110318013ED6
:100B5E000319B22DCC07470803110318013E0319E0
:100B6E00B92DCD075508C400C501C601C7014408FB
:100B7E00D007450803110318013E0319C72DD107ED
:100B8E00460803110318013E0319CE2DD20747085C
:100B9E0003110318013E0319D52DD3070830C400E5
:100BAE000310CA0DCB0DCC0DCD0DC40BD72D3D08AA
:100BBE00F00040088A15A0248A11710883120313CD
:100BCE00D5007008D4005408C4005508C500C601ED
:100BDE00C7014408CA07450803110318013E03194B
:100BEE00F92DCB07460803110318013E0319002EF9
:100BFE00CC07470803110318013E0319072ECD0732
:100C0E003C08F00041088A15A0248A11710883124D
:100C1E000313D5007008D4005408C4005508C5004D
:100C2E00C601C7014408CA07450803110318013E4F
:100C3E000319222ECB07460803110318013E031990
:100C4E00292ECC07470803110318013E0319302E35
:100C5E00CD070830C4000310CA0DCB0DCC0DCD0D41
:100C6E00C40B322E3C08F00040088A15A0248A11CD
:100C7E00710883120313D5007008D4005408C40001
:100C8E005508C500C601C7014408CA074508031127
:100C9E000318013E0319542ECB07460803110318FF
:100CAE00013E03195B2ECC07470803110318013EC2
:100CBE000319622ECD073D08F00042088A15A024C4
:100CCE008A11710883120313D5007008D4005408DA
:100CDE00C4005508C500C601C7014408D007450821
:100CEE0003110318013E03197D2ED1074608031187
:100CFE000318013E0319842ED20747080311031867
:100D0E00013E03198B2ED3073E08F00041088A15C9
:100D1E00A0248A11710883120313D5007008D40021
:100D2E005408C4005508C500C601C7014408D007C1
:100D3E00450803110318013E0319A62ED1074608D4
:100D4E0003110318013E0319AD2ED20747080311F4
:100D5E000318013E0319B42ED3073E08F0004208D3
:100D6E008A15A0248A11710883120313D500700806
:100D7E00D4005408C4005508C500C601C701083088
:100D8E000310C40DC50DC60DC70DFF3E031DC72EA6
:100D9E004408D007450803110318013E0319D82E45
:100DAE00D107460803110318013E0319DF2ED2079F
:100DBE00470803110318013E0319E62ED3074A080C
:100DCE00C4004B08C5004C08C6004D08C7001830BB
:100DDE000310C70CC60CC50CC40CFF3E031DEF2E32
:100DEE004408D007450803110318013E0319002FCC
:100DFE00D107460803110318013E0319072FD20726
:100E0E00470803110318013E03190E2FD3070830AC
:100E1E00C4000310CA0DCB0DCC0DCD0DC40B102F7D
:100E2E004F084E07C400C501C50D4408823ED400CC
:100E3E0045080318013EFF3ED500422F0130C40085
:100E4E000310D00DD10DD20DD30DC40B272FCD1FF6
:100E5E00312F322F332F50140130C4000310CA0D1E
:100E6E00CB0DCC0DCD0DC40B352FFF30D407031891
:100E7E00D50AFF30D507D21F452F462F252FCE017D
:100E8E00CD1F4A2F4B2F672FFF304A05C400FF306E
:100E9E004B05C500FF304C05C6007F304D05C70021
:100EAE00470846044504440403195E2F5F2F622F42
:100EBE000130CE00672F501C652F662F672F5F2FD6
:100ECE004E0803196B2F6C2F9D2F0130D007003069
:100EDE0003180130D107003003180130D20700305B
:100EEE0003180130D307531C7D2F7E2F9D2F5008E2
:100EFE00C4005108C5005208C6005308C70001308F
:100F0E00C800470DC70CC60CC50CC40CC80B882FE7
:100F1E004708D3004608D2004508D1004408D00047
:100F2E000130D4070318D50A0030D5075508803A8A
:100F3E00FF0080307F02031DA62FFF305402031CDA
:100F4E00A92FAA2FB52F7F3083120313D300803021
:100F5E00D2000030D1000030D000E62F83120313F0
:100F6E005508803AFF0080307F02031DC02F0130EC
:100F7E0054020318C32FC42FD02F00308312031333
:100F8E00D3000030D2000030D1000030D000C901B3
:100F9E00E62F831203135408CF00FF30D005FF3025
:100FAE00D1057F30D2050030D3054F1CDF2FE02F47
:100FBE00E12FD2174F08C4000310440CD300490888
:100FCE00D3045308BF005208BE005108BD0050089C
:100FDE00BC0008008313B530FD000C30FE006330FA
:100FEE00FF00AB3084008A1571248A1183018A15A3
:020FFE002D2E96
:1018A800831203138601F830850508008316031395
:1018B8008601F83085058A1554248A1508003F34B6
:1018C80006345B344F3466346D347D3407347F34EA
:1018D8006F347E088A007F0882008A156D248A1575
:1018E8008000840A04087D0603190034FF0A0319DE
:1018F800FE0A712C803083120313B7063B08A3003D
:101908003A08A2003908A1003808A0003708A70043
:101918003608A6003508A5003408A4008A117122EB
:101928008A15831203132308B7002208B60021087A
:10193800B5002008B4000800F800F401F5017008AB
:10194800F200F3017208F6007308F700781CAD2C5A
:10195800AE2CB42C7608F4070318F50A7708F507B7
:1019680001300310F60DF70DFF3E031DB52C0310D3
:10197800F80C7808031DC12CC22CAA2C7508F1009C
:101988007408F0000800F1000A3071020318CD2C29
:10199800CE2CFC2C70080319D22CD32CFC2C043030
:1019A8007002031CD82CD92CDA2CFC2C8030831222
:1019B800031386057108AB3E840083130008860470
:1019C800F12CF93085050514FC2CFA3085058514B1
:1019D800FC2CFC3085050515FC2C7008013A031910
:1019E800E52C033A0319E92C013A0319ED2CFC2CD8
:1019F8000800FD01FB1F012D022D092DFA09FB0925
:101A0800FA0A0319FB0A0130FD00F91F0C2D0D2DF0
:101A1800122DF809F909F80A0319F90A780879045E
:101A28000319172D182D452D0130FC00242D0130E8
:101A38000310F80DF90DFF3E031D1C2D0130FC07A6
:101A4800F91F272D282D1B2D79087B02031D2E2D0C
:101A580078087A02031C312D322D382D7808FA02C5
:101A68007908031CFB03FB0201300310F90CF80C86
:101A7800FF3E031D392D0130FC02031D442D452D69
:101A8800282D7D080319492D4A2D4F2DFA09FB09E8
:101A9800FA0A0319FB0A7B08F9007A08F80008001B
:101AA800F501F11F582D592D602DF009F109F00AA3
:101AB8000319F10A0130F500F31F632D642D6B2D16
:101AC800F209F309F20A0319F30A0130F506F601DF
:101AD800F701700871040319722D732DA82D0130B8
:101AE800F4007F2D01300310F00DF10DFF3E031DB2
:101AF800772D0130F407F11F822D832D762D0130CB
:101B08000310F60DF70DFF3E031D842D71087302B7
:101B1800031D902D70087202031C932D942D9B2D8C
:101B28007008F2027108031CF303F3027614013003
:101B38000310F10CF00CFF3E031D9C2D0130F40244
:101B4800031DA72DA82D832D75080319AC2DAD2DC8
:101B5800B22DF609F709F60A0319F70A7708F10012
:101B68007608F0000800031083120313580D590D6E
:101B7800DF005F08031DC12DC22DCB2D0030D90019
:101B88000030D8000030D7000030D6002C2E560880
:101B9800DA005708DB005808DC005908DD001F3060
:101BA8000310DD0CDC0CDB0CDA0CFF3E031DD42D1E
:101BB8005A08DE00D817FF30D605FF30D705FF30AA
:101BC800D8050030D9059630DF02DF1FEC2DED2D4A
:101BD800052E5F08803A973E0318F32DF42DF52D56
:101BE800C22D01300310D90CD80CD70CD60CFF3EEF
:101BF800031DF62D0130DF07031D032E042EF52DDE
:101C08001C2E20305F02031C0A2E0B2E172EC22D0D
:101C18000130DA000310D60DD70DD80DD90DDA0B27
:101C28000E2E0130DF025F08031D1B2E1C2E0C2E0A
:101C38005E080319202E212E2C2ED609D709D80983
:101C4800D909D60A0319D70A0319D80A0319D90AD0
:101C580008008A155A248A1583120313EB016B08AE
:101C6800E800E9016808A0006908A1008A15BF26F4
:101C78008A15683083120313E900E330E800E80BA3
:101C8800432EE90B432E482E013083120313EB0732
:101C98000A306B02031C512E522E332E4130E300C2
:101CA8004330E2003330E1003330E0008A11BB20DA
:101CB8008A150B3083120313EA002630E9005D30E1
:101CC800E800E80B652EE90B652EEA0B652E3F3020
:101CD80083120313E3009A30E200E130E100483058
:101CE800E0008A11BB208A150B3083120313EA0027
:101CF8002630E9005D30E800E80B802EE90B802EE5
:101D0800EA0B802E3E3083120313E3006130E200B9
:101D18004730E100AE30E0008A11BB208A150B3055
:101D280083120313EA002630E9005D30E800E80B6F
:101D38009B2EE90B9B2EEA0B9B2E4230831203133A
:101D4800E3000B30E2003330E1003330E0008A1169
:101D5800BB208A150B3083120313EA002630E900F2
:101D68005D30E800E80BB62EE90BB62EEA0BB62E6E
:101D7800302E8A1100288A1554248A1583120313D9
:101D8800A11BC72EC82E5D2F2108803AFF00833083
:101D98007F02031DD12EE8302002031CD42ED52E3D
:101DA800D62E5D2F0A30F8000030F9006430F000BC
:101DB8000030F100831203132108F3002008F20019
:101DC8008A1554258A157108FB007008FA008A15CF
:101DD800FD248A15780883120313A4000A30F8003A
:101DE8000030F9000A30F0000030F1002108F3005B
:101DF8002008F2008A1554258A157108FB0070081E
:101E0800FA008A15FD248A15780883120313A500A1
:101E18000A30F8000030F9002108FB002008FA0019
:101E28008A15FD248A15780883120313A600A701D2
:101E3800F001F00A24088A15C7248A15063083128F
:101E48000313A3002F30A200A20B282FA30B282FC7
:101E58002D2F0230F0008312031325088A15C7249A
:101E68008A15063083120313A3002F30A200A20B99
:101E78003B2FA30B3B2F402F0330F000831203139B
:101E880026088A15C7248A15063083120313A3006F
:101E98002F30A200A20B4E2FA30B4E2F532F013031
:101EA80083120313A70732302702031C5C2F5D2F10
:101EB8001C2F080000307005F80000307105F9008B
:101EC80080307205FA007F307305FB007B087A04C6
:101ED80079047804031D712F722F7A2F0030F300D4
:101EE8000030F2000030F1000030F00000307405DE
:101EF800F80000307505F90080307605FA007F306B
:101F08007705FB007B087A0479047804031D8D2F7C
:101F18008E2F962F0030F7000030F6000030F500C5
:101F28000030F400F31F992F9A2FBE2F0030F800CD
:101F38000030F9000030FA008030FB007008F80229
:101F48007108031C710FA92FAA2FF9027208031C2C
:101F5800720FAF2FB02FFA027308031C730FB52F3F
:101F6800B62FFB027B08F3007A08F2007908F1002B
:101F78007808F000F71FC12FC22FE62F0030F800B5
:101F88000030F9000030FA008030FB007408F802D5
:101F98007508031C750FD12FD22FF9027608031C80
:101FA800760FD72FD82FFA027708031C770FDD2F6B
:101FB800DE2FFB027B08F7007A08F6007908F500A7
:101FC8007808F4008030F3068030F706770873024B
:101FD800031DF82F76087202031DF82F7508710289
:101FE800031DF82F740870020318FB2FFC2FFE2F17
:081FF8000310FF2F0314080081
:04400E00293FFF3F08
:00000001FF
